:1000000012C024C023C022C021C020C01FC01EC0F7
:100010001DC01CC01BC01AC019C018C017C016C014
:1000200015C014C013C011241FBECFE5D4E0DEBF3D
:10003000CDBF10E0A0E6B0E0EAE2F5E002C0059036
:100040000D92AE36B107D9F7F3D16DC2D9CF84B3D3
:100050006095682364BB86B1866886B90895FC0103
:100060006083F5DF0895FC0180818F70806487B91B
:10007000369A349BFECF84B195B10895CF93DF9328
:10008000CDB7DEB7CF5FD1090FB6F894DEBF0FBE94
:10009000CDBF4AE0BE016F5F7F4F12D2CE01019605
:1000A000C150DF4F0FB6F894DEBF0FBECDBFDF915A
:1000B000CF91089584E886BF06B607FEFDCF089568
:1000C0000F931F93CF93FC018081813059F582B348
:1000D000807F962F92959F70892B82BB95989498DC
:1000E000969A87EE93E00197F1F700C0000096988A
:1000F00087EE93E00197F1F700C0000082B3807FA4
:10010000962F9F70892B82BB969A87EE93E001977A
:10011000F1F700C00000969887EE93E00197F1F7A1
:1001200000C00000808181112BC088B3807F962F92
:1001300092959F70892B88BBC598C498C69A87EE04
:1001400093E00197F1F700C00000C69887EE93E0B6
:100150000197F1F700C0000088B3807F962F9F7051
:10016000892B88BBC69A87EE93E00197F1F700C010
:100170000000C69887EE93E00197F1F700C00000F9
:1001800080818230C1F5C62F8F0183B1807F962F89
:1001900092959F70892B83B91D981C981E9ACF0148
:1001A00089DF87EE93E00197F1F700C000001E9809
:1001B000C80180DF87EE93E00197F1F700C00000EF
:1001C00063B1862F807F6C2F6F70682B63B91E9A86
:1001D0001D981C98C8016EDF87EE93E00197F1F738
:1001E00000C000001E98C80165DF87EE93E001970C
:1001F000F1F700C00000CF911F910F9108950F9368
:100200001F93CF93FC018081813059F582B3807FA9
:10021000962F92959F70892B82BB9598949A969A67
:1002200087EE93E00197F1F700C00000969887EE03
:1002300093E00197F1F700C0000082B3807F962F12
:100240009F70892B82BB969A87EE93E00197F1F716
:1002500000C00000969887EE93E00197F1F700C088
:100260000000808181112BC088B3807F962F9295EA
:100270009F70892B88BBC598C49AC69A87EE93E075
:100280000197F1F700C00000C69887EE93E0019750
:10029000F1F700C0000088B3807F962F9F70892BF4
:1002A00088BBC69A87EE93E00197F1F700C0000083
:1002B000C69887EE93E00197F1F700C000008081B7
:1002C0008230C1F5C62F8F0183B1807F962F929522
:1002D0009F70892B83B91D981C9A1E9ACF01EADE64
:1002E00087EE93E00197F1F700C000001E98C80167
:1002F000E1DE87EE93E00197F1F700C0000063B103
:10030000862F807F6C2F6F70682B63B91D981C9AA5
:100310001E9AC801CFDE87EE93E00197F1F700C087
:1003200000001E98C801C6DE87EE93E00197F1F742
:1003300000C00000CF911F910F910895CF93DF93DC
:10034000EC01611116C08FE787BBC69863E3CE014D
:10035000B7DE62E3CE01B4DE68E2CE01B1DE6CE06E
:10036000CE01AEDE61E0CE01ABDE66E0CE01A8DEFE
:1003700017C06130A9F48FE781BB969863E3CE0183
:100380009FDE62E3CE019CDE68E2CE0199DE6CE086
:10039000CE0196DE61E0CE0193DE66E0CE0190DE16
:1003A000DF91CF910895FC016083C8DF0895CF935A
:1003B000DF9300D000D0CDB7DEB720E8298320EC52
:1003C0002A8324E92B8324ED2C83FE01E40FF11D05
:1003D0002181620F75DE0F900F900F900F90DF91CB
:1003E000CF910895EF92FF920F931F93CF93FB014C
:1003F0006081662361F08F017C01C0E0C701FFDEF0
:10040000CF5FF801EC0FF11D60816111F7CFCF9143
:100410001F910F91FF90EF900895CF93DF93EC0120
:10042000CB012CDEBC01CE01DDDFDF91CF91089541
:10043000CF93DF9300D000D0CDB7DEB760E0CE0120
:100440000196B1DF60E0CE01039609DE61E0CE01E6
:10045000049605DE40E060E0CE010196A8DF60E68C
:1004600070E0CE010196BEDFCE010396FCDDBC013B
:10047000CE010196D2DF66E670E0CE010196B2DFD2
:1004800041E060E0CE01019692DF68E670E0CE01C7
:100490000196A8DFCE010496E6DDBC01CE010196EF
:1004A000BCDF66E670E0CE0101969CDF2FEF80E7AF
:1004B00092E0215080409040E1F700C00000CACF98
:1004C000BB274A3031F4992322F4BDE290958195FF
:1004D0009F4F01C0BB27FB015527AA27880F991FF3
:1004E000AA1FA41710F0A41B83955051B9F7A05D63
:1004F000AA3308F0A95DA193009779F7B111B193E0
:100500001192CB0100C0DC01FC01672F71917723B0
:10051000E1F7329704C07C916D9370836291AE17BE
:0A052000BF07C8F30895F894FFCF59
:0E052A00414443303D002000414443313D0038
:00000001FF
